:02000000672C6B
:10000800FF00030E83018316C1000A08C2008A019B
:1000180070088312A0000B1D2428C00A0319C10A06
:1000280000304106031D1A2810304006031D2328FE
:10003800AE0A0319AF0AC001C101BE3081000B111D
:100048002008F000831642088A00410E8300FF0E44
:040058007F0E09000E
:06005C0000000000080096
:100062000F3083120313FC004730FD00FD0B3728CD
:0A007200FC0B372800000000080016
:0E007C00213083120313FD00FD0B4228080003
:10008A0083160313CB1B4C28831286124E28831225
:10009A00861683164B1B542883120612562883127F
:1000AA0006168316CB1A5C28831286115E288312E1
:1000BA00861583164B1A6428831206116628831242
:1000CA000615831640186C28831206146E288312AC
:1000DA00061086142E2086108316CB1977288312D1
:1000EA00861279288312861683164B197F28831263
:1000FA0006128128831206168316CB1887288312C4
:10010A00861189288312861583164B188F28831225
:10011A000611912883120615831640189728831210
:10012A00061499288312061086142E208610831628
:0C013A00401CA1283120A2283E20080013
:10014600710DF80DF90D7408F8027508031C750F8A
:10015600F902F00DF10D0F30FC00710DF80DF90DDF
:100166007408701CBC28F8027508031C750FF90288
:10017600C128F80775080318750FF907F00DF10D7A
:10018600FC0BB0287018CD287408F80775080318FA
:08019600750FF90700000800D5
:10019E008316031340104A08CB00452083164014E3
:0201AE00080047
:1001B000831203137408003A031DE7287508003AF8
:1001C000031DE728FF30F0007F30F1004029831243
:1001D0000313FD01F901F8017108700403190034DB
:1001E00071087506FA00FA1BFD09FB01F51FFD28D1
:1001F000F409F509F40A0319F50AF11F0429F009B5
:10020000F109F00A0319F10A71087504FA00FA1BE2
:100210001929A3207B182C29FD1F0034F009F109AE
:10022000F00A0319F10AF809F909F80A0319F90A99
:100230000034F51F2829F11B24297108F9007008E2
:10024000F800F101F0010C29F101F001F00A00348D
:10025000F109F009FB0A0929F80A0319F90A7408D7
:100260007802031D0C2975087902031D0C29F90178
:10027000F801F00A0319F10AF11F0C290000FF34FC
:02028000080074
:1002820083160313861006100611861106128612B3
:10029200831286100610861206128611061131206C
:1002A200312031208615061586142E208610312025
:1002B20086142E208610312086142E20861031209E
:1002C200061186142E208610312086142E208610C8
:1002D2008611861686142E20861031208612061567
:1002E20086142E208610061186142E2086103120A8
:1002F20086142E208610061586142E208610312094
:10030200061186142E2086108616061686150615E8
:0E03120086142E208610312083164014080019
:10032000A229803083160313C600B529C030C60049
:10033000B5299430C600B529D430C600B52980301F
:10034000C600B529831603134608013A03199129FB
:100350004608023A031996294608033A03199929CF
:100360004608043A03199C299F294703F0004608D0
:10037000F0077008C6007008CB00452083164010B7
:10038000C90149084807840000080319CF29490812
:10039000480784000008CA00CF20C90AC1294014B8
:0203A000080053
:0E03A200831603133D088A003C088200080001
:1003B000803083120313F000803035067002031D75
:1003C000E32934081F3C0318ED29AC0A0319AD0AD0
:1003D0000130B4000030B5008E2A00303506031D10
:1003E000F3291F303406031D1E2A00302D06031D7D
:1003F000FB2904302C060319162A00302D06031D94
:10040000032A06302C060319162A00302D06031D78
:100410000B2A09302C060319162A00302D06031D5D
:10042000132A0B302C060319162A1E2AAC0A0319AC
:10043000AD0A0130B4000030B5008E2A0030350618
:10044000031D242A1E303406031D362A00302D06D3
:10045000031D2C2A02302C06031D362AAC0A031970
:10046000AD0A0130B4000030B5008E2A00303506E8
:10047000031D3C2A1D303406031D8E2A00302D0634
:10048000031D442A02302C06031D8E2A0430F4007A
:100490000030F5002A08F0002B08F100D820780879
:1004A000F0007908F10000307106031D592A003070
:1004B0007006031D872A6430F4000030F5002A0816
:1004C000F0002B08F100D8207808F0007908F1003E
:1004D00000307106031D6E2A00307006031D862A47
:1004E0009030F4000130F5002A08F0002B08F100EC
:1004F000D8207808F0007908F10000307106031D5B
:10050000832A003070060319862A872A8E2AAC0AAD
:100510000319AD0A0130B4000030B50000302D06DB
:10052000031D942A0D302C06031D9D2AAA0A0319C7
:0C053000AB0A0130AC000030AD00080048
:10053C000A3083120313F4000030F5003208F00087
:10054C003308F100D8207808F0007908F100303039
:10055C007007A5000A30F4000030F5003208F000F6
:10056C003308F100D82030307007A4000A30F400B2
:10057C000030F5003008F0003108F100D820780880
:10058C00F0007908F10030307007A2000A30F40056
:10059C000030F5003008F0003108F100D820303080
:0605AC007007A100080029
:1005B20083120313071CEE2A0630FB001330FC00E3
:1005C200AD30FD00FD0BE32AFC0BE32AFB0BE32A13
:1005D20000000000B20A0319B30A871CF32AB00A0A
:1005E2000319B10A071DF82AB40A0319B50A871DAF
:1005F200FD2AAC0A0319AD0A071E022BAA0A031927
:04060200AB0A080037
:10060600152B803083160313C300282BC030C3007C
:10061600282B9430C300282BD430C300282B8030DD
:10062600C300282B831603134308013A0319042B2E
:100636004308023A0319092B4308033A03190C2B02
:100646004308043A03190F2B122B4403F000430806
:10065600F0077008C30040147008CB0045208316CD
:0E06660040104508CB004520831640140800C4
:1006740001308316031387008312870141210C3054
:10068400CB0045208316BE01BF0180303F06F00039
:1006940080307002031D502B14303E020318722B5D
:1006A4000130C6001030C700A030C80090210230CD
:1006B400C6001030C7004E30C80090211830CB005F
:1006C40045208230FC00DD30FD00FD0B672BFC0B68
:1006D400672B000000008316BE0A0319BF0A472BCC
:1006E4000130CB00452001308316C6000530C70019
:1006F400B230C80090210230C6000430C700643014
:10070400C80090210B30FB002630FC005D30FD005A
:10071400FD0B8A2BFC0B8A2BFB0B8A2B00000000A1
:100724000130CB00452001308316C6000130C700DC
:100734003B30C80090210230C6000130C70036307B
:10074400C800902181128111011481140115BE3059
:0C075400831281000B118B168B1708001C
:10076000D1218A110A128000840ABC0A0319BD0A29
:08077000F003031DB02B08008B
:100778000030831203132F06031DC42B3C302E06B2
:10078800031DCB2BB20A0319B30AAE01AF01003027
:100798003306031DD12B3C303206031DD82BB00A7B
:1007A8000319B10AB201B30100303106031DDE2B73
:1007B80018303006031DE52BB40A0319B50AB00139
:0407C800B101080073
:1007CC000A3083120313F4000030F5003408F000F3
:1007DC003508F100D82030307007C2000A30F40020
:1007EC000030F5003408F0003508F100D820780806
:1007FC00F0007908F10030307007C3000A30F400C3
:10080C000030F5002C08F0002D08F100D820303015
:10081C007007C5000A30F4000030F5002C08F00019
:10082C002D08F100D8207808F0007908F10030305C
:10083C007007C600E830F4000330F5002A08F00019
:10084C002B08F100D82030307007C8006430F40059
:10085C000030F5002A08F0002B08F100D8200A30EF
:10086C00F4000030F500D8207808F0007908F10089
:10087C0030307007C9000A30F4000030F5002A0847
:10088C00F0002B08F100D8200A30F4000030F500FD
:10089C00D8207808F0007908F10030307007CA00D1
:1008AC000A30F4000030F5002A08F0002B08F100A3
:1008BC00D8207808F0007908F10030307007CB00B0
:0208CC00080022
:1008CE001A253A23BC239E22D821E623D9220130B1
:1008DE008316C6000630C7002130C80090210230B2
:1008EE00C6000630C7004230C80090210130C30058
:1008FE000830C4002030C50003230330FB008A30CB
:10090E00FC005530FD00FD0B8A2CFC0B8A2CFB0BDA
:10091E008A2C000000000130C3000830C4003A30B9
:10092E00C50003230330FB008A30FC005530FD0068
:10093E00FD0B9F2CFC0B9F2CFB0B9F2C0000000033
:04094E00692CA82C3C
:100A340021308400433083120313F000AE30831658
:100A4400BC000430BD00B023A03084001230F0009C
:100A5400F1308316BC000430BD00B0236430840040
:100A64000C30F00003308316BC000530BD00B02309
:100A7400B23084000A30F0000F308316BC00053019
:060A8400BD00B0230800D4
:10095C00683468343A346D346D3400340034003407
:02096C00003455
:04096E00E73407342F
:040972000234003417
:040976000034003415
:04097A000034003411
:04097E00003400340D
:040982001B340034EE
:0A09860044346134743465340034E5
:0A099000543469346D3465340034CA
:04099A0000340034F1
:10099E00643464343A346D346D343A3479347934A1
:0809AE0079347934003400347F
:1009B600443445345334493447344E34453444344E
:1009C60020344234593420344134413432343134C1
:0C09D60036343334203420342034003414
:1009E2002034203444344934473449345434413473
:1009F2004C34203443344C344F3443344B3420345D
:040A02002034003468
:100A06004434613474346534203426342034543408
:080A160069346D3465340034CD
:100A1E00203453346534743420347434683465347B
:040A2E00203400343C
:02400E004A2F37
:00000001FF
